:04000000D9EF01F043
:100008004F82FACF03F0FBCF04F0E9CF05F0EACF37
:1000180006F0E1CF07F0E2CF08F0D9CF09F0DACF48
:100028000AF0F3CF0BF0F4CF0CF0F6CF0DF0F7CFCA
:100038000EF0F8CF0FF0F5CF10F03AD0AECFF6F0C3
:10004800320E0001DE19D8A402D00001DE077E0EB0
:100058000001F619D8A40AD0070E0001DE6502D007
:10006800DEC0CFF0000E0001DE6F22D07D0E000151
:10007800F619D8A404D0010E0001CF6F19D00001E1
:10008800CF05D8A408D0000E0001CF6F0001F651AB
:10009800200A0001F66F0001DE51010D8A0EF324DB
:1000A800D96E010EF420DA6EF6C0DFFF0001DE2BF8
:1000B8009EBAC4D79EB89DA86CD00001D051010D3E
:1000C800000EF324D96E010EF420DA6EDF50000121
:1000D800DA6FDAC0ADFF0001D051D8B405D07E0E7A
:1000E8000001DA19D8B405D0310E0001D019D8A40E
:1000F80005D09D98000E0001D06F4BD00001D02B89
:1001080048D071B4D0A210D04E04D8A40DD0030E9C
:100118000001F719D8A408D074CFF6F00001F65101
:10012800D8A404D0FF0002D074CFF6F0F6C073FF55
:10013800320E0001DF19D8A402D00001DF07080E33
:100148000001F619D8A407D00001DF51D8B403D0B4
:100158000001DF071ED00D0E0001F619D8B405D036
:100168000A0E0001F619D8A407D0000E0001F66F98
:100178000001DF290001CE6F0001DF51010DBC0E27
:10018800F324D96E010EF420DA6EF6C0DFFF000109
:10019800DF2BA4AAEAD0B5D74C04D8A460D0445029
:1001A800D8A404D0030E4E18D8B42CD02C0E0001BD
:1001B800C85D010E0001C959D8B002D0899801D094
:1001C8008988898A0001C851016E0001C951026EEF
:1001D8000001C84BC92B910E015C010E0258D8A032
:1001E80071D082B209D0890E0001C85D130E0001DA
:1001F800C959D8A067D05CD0010E0001C96F900E14
:10020800C86F60D02C0E0001C65D010E0001C759F1
:10021800D8B003D08988899A02D08988898A000150
:10022800C651016E0001C751026E0001C64BC72BB3
:10023800910E015C010E0258D8A073D082A209D099
:10024800890E0001C65D130E0001C759D8A069D0F8
:100258005ED0010E0001C76F900EC66F62D0020E0D
:100268004C18D8A463D04450D8A404D0030E4E1818
:10027800D8B42ED0580E0001C85D020E0001C9592D
:10028800D8B002D0899801D08988898A0001C851DC
:10029800016E0001C951026E0001C84BC92BBD0E89
:1002A800015C020E0258D8A00DD082A206D09BD7BE
:1002B800000E0001C96F000EA3D7020E0001C96F1E
:1002C800BC0E9ED7000E0001C76F000EC66F2ED061
:1002D800580E0001C65D020E0001C759D8B003D000
:1002E8008988899A02D08988898A0001C651016E55
:1002F8000001C751026E0001C64BC72BBD0E015C41
:10030800020E0258D8A00DD082B206D099D7000E9E
:100318000001C76F000EA1D7020E0001C76FBC0E07
:100328009CD7000E0001C96F000EC86F010E3F2652
:10033800000E402241224222010150510101511177
:10034800D8B404D001015007D8A051070001D5073F
:100358000001D529D8A408D0D4C067FF0A0E00012F
:10036800D56F010E0001D66F7E907EB015D710C0F4
:10037800F5FF0FC0F8FF0EC0F7FF0DC0F6FF0CC069
:10038800F4FF0BC0F3FF0AC0DAFF09C0D9FF08C0A9
:10039800E2FF07C0E1FF06C0EAFF05C0E9FF04C0AD
:1003A800FBFF03C0FAFF4F921100AEEF2FF0000ED3
:1003B8000301076F050E0301036F000E0301026FAF
:1003C800000E0301016F000E0301006F000E030110
:1003D800096F050E086FB6EC2DF0CCEC2CF045C07B
:1003E80017F046C018F0000E1A6E0A0E196E7CEC53
:1003F80034F017C0C2F018C0C3F079EC31F0DBEC70
:1004080033F0D0820001DC51D8A4DCEC28F00001E4
:10041800CE51D8A4FEEC09F00001D051D8B4ACA25A
:1004280001D08A9A24EC2EF0A30E946E00F000F00E
:100438008250210B03010C6F03010C39E8461F0B96
:100448000001F76F03010C510C25020B0001F71195
:100458000001F76F8150010B0001F7110001F76FE0
:10046800820E946E070E0001F719D8A406D0000179
:10047800FA510001F719D8B404D00001F7519BECE8
:1004880011F00001D151D8B427D0880E01014A25B6
:100498000101EE6F130E01014B210101EF6F000EF8
:1004A80001014C210101F06F000E01014D210101F4
:1004B800F16F3F500101EE5D40500101EF5941508D
:1004C8000101F05942500101F159D8B005D000019D
:1004D800D951D8B4FCEC24F081B448D00301002BE6
:1004E80000050101EE6F050E0101EE6542D0010124
:1004F800505101015111D8A434D04950D8B41AD060
:100508000001CB51D8B406D0000E0001CB6F010E0C
:100518004E6E03D0010E0001CB6F030E00017A6FFF
:10052800FB0E00017B6FCBC07CF000017D6BE0EC23
:100538001FF00CD0030E4E18D8A408D0010E4E6E32
:100548000001DC51D8A402D00F0E436E0001F5055E
:10055800D8A407D0050E4418D8B481B202D0000E32
:10056800446E000E0101516FC80E506F000E03015A
:10057800006F0001F505D8B481A20FD0000E126EED
:10058800020E116EA0EC33F081A207D0010E4E6E60
:10059800050E446E000E0001D26F050E4E18D8A449
:1005A80022D04250411006E1E90E3F5C030E40584C
:1005B800D8A019D0010E1C6E000E1D6E000E1E6E06
:1005C8004B0457EC32F0D30E00017A6FF60E00019F
:1005D8007B6FE0EC1FF0000E3F6E000E406E000EC9
:1005E800416E000E426E4E04D8A4A4D0000EBD6E1B
:1005F80082848A98000E0101466FEBEC31F003010A
:100608000A6F03010A05D8A402D0000E436E020E39
:1006180003010A19D8B405D0030E03010A19D8A496
:1006280089D0020E0001D719D8A47ED00001CB5181
:10063800D8A403D04950D8A477D00301072B0705C5
:100648000101EE6F190E0101EE6574D02EEC2AF04F
:10065800E806D8A402D0040E446E4350D8A46AD049
:100668004450D8A467D0000E0301026FF4EC2FF0B9
:10067800930E00017A6FF80E00017B6FC4C07CF006
:10068800C5C07DF0F3C07EF0F4C07FF0E0EC1FF051
:100698000001F3510001C45D0001F4510001C55986
:1006A800D8B005D0C4C0BCF0C5C0BDF004D0F3C0FC
:1006B800BCF0F4C0BDF0010E4B6420D0020E1C6EDD
:1006C800000E1D6EBCC01EF04B0457EC32F08D0EB0
:1006D80000017A6FF70E00017B6FBCC07CF0BDC0D3
:1006E8007DF0E0EC1FF0060E4E6E000E3F6E000E21
:1006F800406E000E416E000E426E1CD0C4C032F136
:10070800C5C033F1010E0101466F020E4E6E1E0E7A
:100718000001CC6F8986DC0E00017A6FFA0E0001A9
:100728007B6FE0EC1FF006D0020E0001D76F000EC1
:100738000301076F060E4E18D8A40BD04250411083
:1007480006E1E90E3F5C030E4058D8A002D0010E26
:100758004E6E020E4E18D8A4CDD0070EBC64B2D08F
:10076800110EBC60AFD0EBEC31F003010A6F03014E
:100778000A05D8A422D00001D705D8A41CD00301AB
:10078800072B07050101EE6F190E0101EE659AD0DE
:10079800010E4E6EC20E00017A6FFA0E00017B6FD9
:1007A800E0EC1FF0010E4B648DD0050E4E6EE90E85
:1007B8003F6E030E3CD0010E77D0030E03010A19D9
:1007C800D8A478D0030E0001D719D8A46CD003019F
:1007D8000205D8A468D00301072B07050101EE6FB5
:1007E800190E0101EE656ED04450D8A46BD0435069
:1007F800D8A468D0010E4B6420D0030E1C6E000EE6
:100808001D6EBCC01EF04B0457EC32F0B00E000158
:100818007A6FF70E00017B6FBCC07CF0BDC07DF025
:10082800E0EC1FF0070E4E6E000E3F6E000E406E9D
:10083800000E416E000E426E45D0BCC032F1BDC004
:1008480033F12EEC2AF00009D8A42AD0020E0101B7
:10085800466F000E0001B36F000EB26F010ECDECB3
:1008680017F08A88000E0301026F030E4E6E000E09
:100878000001D26F000E3F6E000E406E000E416EFA
:10088800000E426E0001D151D8B4C4EC1AF0E90E42
:1008980000017A6FFA0E00017B6FE0EC1FF012D0B6
:1008A800040E446E0FD0030E0001D76F000E030133
:1008B800076F08D0020E0001D719D8B403D0000E74
:1008C8000001D76FE60EBC6415D0F10EBC64FDD7ED
:1008D800F10EBC6401D0BC50EBEC31F003010A6F9F
:1008E800040E03010A19D8A402D0010E01D0000E8B
:1008F8000301026F070E4E18D8A416D042504110BB
:1009080006E1E90E3F5C030E4058D8A00DD0000E5A
:100918000301026F020E4E6EE90E00017A6FF90EA6
:1009280000017B6FE0EC1FF0030E4E18D8A47FD0B7
:10093800070EBC647CD0110EBC6079D0EBEC31F0B2
:1009480003010A6F03010A05D8B405D003010A514F
:100958000301D8A42DD00001D705D8A427D00301BE
:10096800072B07050101EE6F190E0101EE655FD037
:10097800010E4E6ECF0E00017A6FFA0E00017B6FEA
:10098800E0EC1FF079EC31F0010E4B640BD0050E52
:100998004E6EE90E3F6E030E406E000E416E000E65
:1009A800426E45D0000E0101466F41D0010E36D08F
:1009B800020E03010A19D8A437D0020E0001D71974
:1009C800D8A42BD00301072B07050101EE6F190EE0
:1009D8000101EE652CD08A9879EC31F0000E030104
:1009E800026F020E4E6E010E4B640BD0080E4E6E57
:1009F800E90E3F6E030E406E000E416E000E426E11
:100A080003D0000E0101466FF10E00017A6FF90E56
:100A180000017B6FE0EC1FF00AD0020E0001D76FD7
:100A2800000E0301076F03D0000E0001D76F080EF8
:100A38004E18D8A422D04250411006E1E90E3F5C7E
:100A4800030E4058D8A019D0040E1C6E000E1D6E5F
:100A5800000E1E6E4B0457EC32F0F90E00017A6F4F
:100A6800F60E00017B6FE0EC1FF0000E3F6E000EEB
:100A7800406E000E416E000E426E040E4418D8A45B
:100A880011D04350D8A408D0160E00017A6FF80E82
:100A980000017B6FE0EC1FF0010E446E010E4E6EFC
:100AA8003C0E436EABA202D0AB98AB8871A202D0C9
:100AB80071987188D6CF0CF33C0ED764B7D0000E6E
:100AC800D76E000ED66E88EC32F04350D8A4430699
:100AD800370E0001DB6106D0030E4418D8A402D0FB
:100AE800000E446E4404D8A40AD0020E4B6007D00E
:100AF8002EEC2AF00009D8A402D0000E446E03019F
:100B080003510301D8A425D04450D8A422D0020E02
:100B1800446E010E4E6EB10E00017A6FF80E0001A0
:100B28007B6FE0EC1FF0000E03010C6F030E030156
:100B38000C6501D015D003010C51010D460EF324AC
:100B4800D96E010EF420DA6E000EDF6E03010C2B55
:100B5800EDD7030103510301D8B402D00301030701
:100B6800400E0001DB6522D0030E446E010E4E6E6E
:100B7800750E00017A6FF90E00017B6FE0EC1FF033
:100B8800000E03010C6F030E03010C6501D00ED09B
:100B980003010C51010D460EF324D96E010EF42009
:100BA800DA6E000EDF6E03010C2BEDD7C4EC1AF0E1
:100BB8004D50D8A43BD0000E0001C16F000EC06F8D
:100BC800030101510301D8B402D003010107020E49
:100BD8004B602CD0030101510301D8A427D0000E8B
:100BE800CDEC17F04B04D8B4F8EC2EF0410E000110
:100BF8007A6FF90E00017B6FB2C07CF0B3C07DF054
:100C0800E0EC1FF0020E4E18D8B404D0030E4E18B4
:100C1800D8A406D0B2C099F0B3C09AF07FEC26F001
:100C2800020E0301016F0A0E0301036F010E00019A
:100C3800CF6506EF02F08A0E116E010E126ECFC05C
:100C480013F07CEC30F011C056F112C057F10A0EC7
:100C58000001CF655AD1500E01018C19D8A455D185
:100C680001018D05D8A451D1470E0101561904E19F
:100C78000F0E01015719D8A448D1060E0301066FBB
:100C8800000E0001C16F000EC06F030E01018F65D9
:100C980003D0030E01018F6F000E03010C6FC3D048
:100CA80003010C51040DE10EF3240301046F000E3F
:100CB800F4200301056F03010651010D8A0EF32488
:100CC800D96E010EF420DA6E04C3E1FF05C3E2FF1A
:100CD800DFCFE7FF0301062B0301044B052B0301BC
:100CE8000651010D8A0EF324D96E010EF420DA6E36
:100CF80004C3E1FF05C3E2FFDFCFE7FF0301062BD3
:100D08000301044B052B03010651010D8A0EF32440
:100D1800D96E010EF420DA6E04C3E1FF05C3E2FFC9
:100D2800DFCFE7FF0301062B0301044B052B03016B
:100D38000651010D8A0EF324D96E010EF420DA6EE5
:100D480004C3E1FF05C3E2FFDFCFE7FF0301062B82
:100D580003010C51040DE10EF324D96E000EF420AA
:100D6800DA6EDECF11F0DECF12F0DECF13F0DECF79
:100D780014F0EDC015F0EEC016F0EFC017F0F0C09B
:100D880018F0B6EC21F003010C51040DE10EF32428
:100D9800D96E000EF420DA6E11C0DEFF12C0DEFF3D
:100DA80013C0DEFF14C0DEFFC0C011F0C1C012F0D6
:100DB800136A146A000E86EC29F011C01FF012C0E5
:100DC80020F013C021F014C022F003010C51040DCF
:100DD800E10EF324D96E000EF420DA6EDECF23F094
:100DE800DECF24F0DECF25F0DECF26F0C8EC2AF0E7
:100DF800D8B017D003010C51040DE10EF324D96EBD
:100E0800000EF420DA6EDECF36F0DECF37F0DECF1C
:100E180038F0DECF39F0D8EC2BF036C0C0F037C050
:100E2800C1F003010C2B01018F5103010C5DD8A007
:100E380037D7A50E01018E19D8A407D00001DC51BF
:100E4800D8A403D0010E0001DC6F4D50D8B457D0A0
:100E5800020E4B6054D0000ECDEC17F0030E0001CB
:100E6800D86112D045C017F046C018F0000E1A6EAF
:100E7800140E196E7CEC34F00001C051175C0001AF
:100E8800C1511858D8B025D0040E446E000E030185
:100E98000C6F030E03010C6501D00ED003010C5139
:100EA800010D460EF324D96E010EF420DA6E000E01
:100EB800DF6E03010C2BEDD7020E1C6E010E1D6EAA
:100EC80043C01EF0000E57EC32F0000E0001D86F40
:100ED80004D04B50D8A4F8EC2EF0020E4E18D8B41B
:100EE80004D0030E4E18D8A406D0B2C099F0B3C0EF
:100EF8009AF07FEC26F00A0E0301036F5DD2000E14
:100F08000001C16F000EC06F57D2060E0001CF65F9
:100F180053D2500E01018C19D8A44ED2020E0101F1
:100F28008D19D8A449D2470E0101561904E10F0EB4
:100F380001015719D8A440D28FC10DF390C10BF30A
:100F480092C108F30301096B0A0E0301036F030141
:100F58000D510301D8A43FD003010B05D8A43BD001
:100F6800010E4B6438D04B500101EE6FEF6BD890F7
:100F78000101EE37EF37040E0101EE27000EEF23D3
:100F88008A0E0101EE25D96E010E0101EF21DA6EFC
:100F9800DF500101F06F0101F0510001B26FB36B36
:100FA800020E4E18D8B404D0030E4E18D8A406D09A
:100FB800B2C099F0B3C09AF07FEC26F0F50E0001AC
:100FC8007A6FF70E00017B6FB2C07CF0B3C07DF082
:100FD800E0EC1FF01BD003010D510301D8A416D07B
:100FE800020E03010B19D8A411D0010E4B640ED0C8
:100FF800010E4E6E91C144F03C0E436E690E000125
:101008007A6FF70E00017B6FE0EC1FF003010D51C2
:101018000101EE6FEF6BFF0E0101F06FFF0E010192
:10102800F16F4B500101F26FF36B0101F0510101B7
:10103800F2270101F1510101F3230101EE510101F0
:10104800F21905E10101EF510101F319D8A491D07A
:10105800810E03010B19D8A40BD0010E4E6E380E69
:1010680000017A6FFA0E00017B6FE0EC1FF081D06F
:10107800820E03010B19D8A426D0030108510301DD
:101088000911D8A40BD0040E446E200E00017A6F0B
:10109800FC0E00017B6FE0EC1FF06BD008C399F0E9
:1010A80009C39AF07FEC26F0020E4E6E090E00017D
:1010B8007A6FF60E00017B6F08C37CF009C37DF0E0
:1010C800E0EC1FF056D0830E03010B19D8A442D0D0
:1010D8000301085103010911D8A40BD0040E446E72
:1010E800280E00017A6FFC0E00017B6FE0EC1FF008
:1010F80040D008C399F009C39AF07FEC26F08A889B
:10110800000E0301026F030E4E6E000E0001D26F37
:10111800000E3F6E000E406E000E416E000E426ED5
:101128000001D151D8B4C4EC1AF01F0E00017A6F37
:10113800F70E00017B6F08C37CF009C37DF0E0EC7B
:101148001FF0E90E00017A6FFA0E00017B6FE0ECE8
:101158001FF00FD0840E03010B19D8A40AD0020E79
:101168004E6EAD0E00017A6FF60E00017B6FE0EC5B
:101178001FF04B04D8A420D103010B05D8A425D017
:1011880003010D51010D460EF324D96E010EF42012
:10119800DA6E000EDF6E000ECDEC17F0D30E0001F4
:1011A8007A6FF90E00017B6F0DC37CF000017D6B37
:1011B800E0EC1FF0810E1C6E000E1D6E000E1E6E00
:1011C80003010D5157EC32F0F7D0020E03010B1951
:1011D800D8A45CD02EEC2AF00009D8A426D00301AC
:1011E8000D51010D460EF324D96E010EF420DA6E6E
:1011F800010EDF6E03010D51020D320EF324D96E7C
:10120800010EF420DA6E08C3DEFF09C3DDFF030117
:101218000D51020DB20EF324D96E000EF420DA6ED1
:1012280047C0DEFF48C0DDFF0DD003010D51020DA0
:10123800B20EF324D96E000EF420DA6E000EDE6EC4
:10124800000EDD6E090E00017A6FF90E00017B6F4A
:101258000DC37CF000017D6B08C37EF009C37FF0ED
:10126800E0EC1FF0820E1C6E000E1D6E03010D5186
:10127800020DB20EF324D96E000EF420DA6EDF50A0
:101288001E6E03010D5157EC32F096D0030E030188
:101298000B19D8A468D02EEC2AF00009D8A429D0BC
:1012A80003010D51010D460EF324D96E010EF420F1
:1012B800DA6E020EDF6E03010D51020D320EF324B9
:1012C800D96E010EF420DA6E08C3DEFF09C3DDFF14
:1012D80003010D51020DB20EF324D96E000EF42055
:1012E800DA6E000EDE6E000EDD6E010ECDEC17F02C
:1012F8000DD003010D51020DB20EF324D96E000E6C
:10130800F420DA6E000EDE6E000EDD6EED0E0001CA
:101318007A6FF80E00017B6F0DC37CF000017D6BC6
:1013280003010D51020DB20EF324D96E000EF42004
:10133800DA6EDECF7EF0DDCF7FF0E0EC1FF0830EBB
:101348001C6E000E1D6E03010D51020DB20EF3242A
:10135800D96E000EF420DA6EDF501E6E03010D51B7
:1013680057EC32F029D0040E03010B19D8A424D06D
:1013780003010D51010D460EF324D96E010EF42020
:10138800DA6E000EDF6E000ECDEC17F0250E0001B0
:101398007A6FF90E00017B6F0DC37CF000017D6B45
:1013A800E0EC1FF0840E1C6E000E1D6E000E1E6E0B
:1013B80003010D5157EC32F0000E0001CF6F020E01
:1013C8004418D8A407D00A0E03010319D8A402D0E0
:1013D800000E446E4404D8A406EF02F04350D8A48B
:1013E80006EF02F0010E4B6406EF02F0000E446EA9
:1013F80006EF02F0AE0E00017A6FF80E00017B6F67
:10140800E0EC1FF00001E0510001D8A4CFD0BC0EE1
:10141800116E010E126ED70E136EFC0E146E37ECA1
:1014280033F011501210D8A409D04D50D8A403D0CD
:101438004B04D8A403D0010E0001E06FBC0E116E5E
:10144800010E126EF50E136EFC0E146E37EC33F0AF
:1014580011501210D8A403D0020E0001E06FBC0E88
:10146800116E010E126EF10E136EFC0E146E37EC37
:1014780033F011501210D8A409D04D50D8A403D07D
:101488004B04D8A403D0030E0001E06FBC0E116E0C
:10149800010E126EED0E136EFC0E146E37EC33F067
:1014A80011501210D8A406D04D50D8B403D0040E51
:1014B8000001E06FBC0E116E010E126EE30E136E8A
:1014C800FC0E146E37EC33F011501210D8A403D070
:1014D800050E0001E06FBC0E116E010E126EE80ED3
:1014E800136EFC0E146E37EC33F011501210D8A4A2
:1014F80006D04A50D8A403D0060E0001E06FBC0EF7
:10150800116E010E126E700E136EFC0E146E37EC17
:1015180033F011501210D8A403D0070E0001E06F69
:10152800BC0E116E010E126EC50E136EFC0E146EFB
:1015380037EC33F011501210D8A406D04A50D8B462
:1015480003D0080E0001E06FBC0E116E010E126E82
:10155800850E136EFC0E146E37EC33F0115012101A
:10156800D8A403D0090E0001E06FBC0E116E010E65
:10157800126E930E136EFC0E146E37EC33F011508E
:101588001210D8A403D00A0E0001E06FBC0E116E31
:10159800010E126ECB0E136EFC0E146E37EC33F088
:1015A80011501210D8A481D20B0E05D00101BC51E4
:1015B800D8A404D078D20001E06F77D20001E0050A
:1015C800D8B40FD0020E0001E019D8B40AD0030E27
:1015D8000001E019D8B405D0080E0001E019D8A41C
:1015E80082D0BC0E1D6E010E1E6E91EC2EF01DC039
:1015F800AEF01EC0AFF00001E005D8A417D000017E
:10160800AF5105E10A0E0001AE5DD8A00FD0000170
:10161800AF510CE1650E0001AE5DD8B007D0AEC089
:1016280045F0AFC046F058EC2BF03DD2020E000159
:10163800E019D8A417D00001AF5105E10A0E000146
:10164800AE5DD8A00FD00001AF510CE1510E0001E2
:10165800AE5DD8B007D0AEC0F3F0AFC0F4F058EC30
:101668002BF021D2030E0001E019D8A417D00001F5
:10167800AF5105E1050E0001AE5DD8A00FD0000105
:10168800AF510CE1110E0001AE5DD8B007D0AEC06D
:1016980047F0AFC048F058EC2BF005D2080E000117
:1016A800E019D8A417D00001AF5105E10D0E0001D3
:1016B800AE5DD8A00FD00001AF510CE1510E000172
:1016C800AE5DD8B007D0AEC0F1F0AFC0F2F058ECC4
:1016D8002BF0E9D1550E00017A6FF80E00017B6FEF
:1016E800E0EC1FF0E0D1040E0001E019D8A48AD084
:1016F800BC0E0001746F010E0001756F56EC34F0DA
:1017080074C0AAF075C0ABF076C0ACF077C0ADF08D
:10171800AAC01FF0ABC020F0ACC021F0ADC022F0D1
:10172800000E236E000E246EC00E256E400E266E2F
:10173800C8EC2AF0D8A014D0000E1F6E000E206E40
:10174800A00E216E420E226EAAC023F0ABC024F078
:10175800ACC025F0ADC026F0C8EC2AF0D8B009D04E
:10176800B10E00017A6FF50E00017B6FE0EC1FF0FF
:101778009AD1E1C02AF0E2C02BF0E3C02CF0E4C01B
:101788002DF0EDC02EF0EEC02FF0EFC030F0F0C01D
:1017980031F05EEC23F02AC09AF02BC09BF02CC0ED
:1017A8009CF02DC09DF0000E156E000E166E200EDA
:1017B800176E410E186EAAC011F0ABC012F0ACC083
:1017C80013F0ADC014F0B6EC21F011C02AF012C02D
:1017D8002BF013C02CF014C02DF09AC02EF09BC033
:1017E8002FF09CC030F09DC031F05EEC23F02AC091
:1017F800EDF02BC0EEF02CC0EFF02DC0F0F058EC5F
:101808002BF051D1050E0001E019D8A428D0BC0E48
:10181800116E010E126EDD0E136EFC0E146E37EC97
:1018280033F011501210D8A405D0010E4D6E58ECAB
:101838002BF039D1BC0E116E010E126E7E0E136E96
:10184800FC0E146E37EC33F011501210D8A42BD1C3
:10185800000E4D6E58EC2BF0000E446E24D1060E8F
:101868000001E019D8A439D0BC0E116E010E126E19
:10187800F70E136EFB0E146E37EC33F01150121086
:10188800D8A405D0010E4C6E58EC2BF00CD1BC0E30
:10189800116E010E126ED10E136EFC0E146E37EC23
:1018A80033F011501210D8A405D0020E4C6E58EC2B
:1018B8002BF0F9D0BC0E116E010E126E300E136EA5
:1018C800FC0E146E37EC33F011501210D8A4EBD084
:1018D800000E4C6E58EC2BF0E6D0070E0001E01914
:1018E800D8A426D0BC0E116E010E126EBF0E136E58
:1018F800FC0E146E37EC33F011501210D8A405D03A
:10190800010E4A6E58EC2BF0CED0BC0E116E010EB3
:10191800126E9A0E136EFC0E146E37EC33F01150E3
:101928001210D8A4C0D0000E4A6E58EC2BF0BBD0D1
:10193800090E0001E019D8A45FD0BC0E116E010E8B
:10194800126E300E136EFC0E146E37EC33F011501D
:101958001210D8A405D0000E4B6E58EC2BF0A3D073
:10196800BC0E116E010E126E8C0E136EFC0E146EF0
:1019780037EC33F011501210D8A405D0010E4B6E7D
:1019880058EC2BF090D0BC0E116E010E126E540E56
:10199800136EFC0E146E37EC33F011501210D8A4ED
:1019A80005D0020E4B6E58EC2BF07DD0BC0E116E9C
:1019B800010E126E5B0E136EFC0E146E37EC33F0D4
:1019C80011501210D8A405D0030E4B6E58EC2BF012
:1019D8006AD0BC0E116E010E126E620E136EFC0EF2
:1019E800146E37EC33F011501210D8A45CD0040EEA
:1019F8004B6E58EC2BF057D00A0E0001E019D8A412
:101A080026D0BC0E116E010E126E300E136EFC0E37
:101A1800146E37EC33F011501210D8A405D0000E14
:101A2800496E58EC2BF03FD0BC0E116E010E126EB1
:101A3800770E136EFC0E146E37EC33F01150121043
:101A4800D8A431D0010E496E58EC2BF02CD00B0ED7
:101A58000001E019D8A427D0BC0E116E010E126E39
:101A6800300E136EFC0E146E37EC33F0115012105A
:101A7800D8A406D0000E0001F56F58EC2BF013D057
:101A8800BC0E116E010E126E690E136EFC0E146EF2
:101A980037EC33F011501210D8A405D0010E000114
:101AA800F56F58EC2BF0000E86D50001E0510001CF
:101AB800D8A45AD2CA0E00017A6FF30E00017B6FC8
:101AC800E0EC1FF06E0E00017A6FFA0E00017B6FDA
:101AD800E0EC1FF0EF0E00017A6FF40E00017B6F4F
:101AE800E0EC1FF0360E00017A6FF80E00017B6FF4
:101AF800DBC07CF000017D6BE0EC1FF00A0E0001FA
:101B08007A6FF40E00017B6FE0EC1FF0200E0001ED
:101B18007A6FF00E00017B6FE0EC1FF0CA0E000137
:101B28007A6FF90E00017B6FE0EC1FF04A50D8B4D1
:101B380009D0B40E00017A6FFA0E00017B6FE0EC59
:101B48001FF008D05A0E00017A6FFA0E00017B6F61
:101B5800E0EC1FF0F10E00017A6FEF0E00017B6FD1
:101B6800E0EC1FF0CC0E00017A6FF90E00017B6FDC
:101B7800E0EC1FF04D50D8B409D0180E00017A6F70
:101B8800FC0E00017B6FE0EC1FF008D0E50E0001B1
:101B98007A6FFB0E00017B6FE0EC1FF0ED0E000189
:101BA8007A6FF00E00017B6FE0EC1FF0BE0E0001B3
:101BB8007A6FF90E00017B6FE0EC1FF04B50D8A450
:101BC80009D03B0E00017A6FFB0E00017B6FE0EC41
:101BD8001FF02ED04B04D8A409D0EE0E00017A6F66
:101BE800FB0E00017B6FE0EC1FF022D0020E4B18B9
:101BF800D8A409D0C10E00017A6FFB0E00017B6FDB
:101C0800E0EC1FF015D0030E4B18D8A409D0CA0E6B
:101C180000017A6FFB0E00017B6FE0EC1FF008D02B
:101C2800D30E00017A6FFB0E00017B6FE0EC1FF012
:101C38004D50D8A403D04B04D8A414D02D0E0001C5
:101C48007A6FF10E00017B6FE0EC1FF0CF0E000100
:101C58007A6FF80E00017B6F45C07CF046C07DF0BE
:101C6800E0EC1FF04D0E00017A6FF00E00017B6F63
:101C7800E0EC1FF0A90E00017A6FF90E00017B6FEE
:101C8800F3C07CF0F4C07DF0E0EC1FF04D50D8A418
:101C980003D04B04D8A414D08E0E00017A6FEF0E37
:101CA80000017B6FE0EC1FF0B10E00017A6FF90EB6
:101CB80000017B6F47C07CF048C07DF0E0EC1FF06E
:101CC8004A50D8B415D0A10E00017A6FF00E000169
:101CD8007B6FE0EC1FF0A50E00017A6FF90E000192
:101CE8007B6FF1C07CF0F2C07DF0E0EC1FF031D0EA
:101CF800C80E00017A6FF00E00017B6FE0EC1FF058
:101D0800C20E00017A6FF90E00017B6FE0EC1FF044
:101D18004C04D8A409D0460E00017A6FFB0E0001CE
:101D28007B6FE0EC1FF015D0020E4C18D8A409D038
:101D3800100E00017A6FFC0E00017B6FE0EC1FF0C3
:101D480008D03B0E00017A6FFB0E00017B6FE0ECC0
:101D58001FF04D50D8B4B6D0E1C036F0E2C037F02D
:101D6800E3C038F0E4C039F0D8EC2BF036C073F09B
:101D780037C074F0000E0001766F0A0E756F3DECE7
:101D880031F073C0A6F074C0A7F0E1C036F0E2C02D
:101D980037F0E3C038F0E4C039F0D8EC2BF036C0A7
:101DA8006FF037C070F0000E0001726F0A0E716F8D
:101DB800B8EC32F06FC0A8F070C0A9F0E5C036F0FA
:101DC800E6C037F0E7C038F0E8C039F0D8EC2BF0BF
:101DD80036C073F037C074F0000E0001766F0A0E3B
:101DE800756F3DEC31F073C09EF074C09FF0E5C094
:101DF80036F0E6C037F0E7C038F0E8C039F0D8EC84
:101E08002BF036C06FF037C070F0000E0001726F13
:101E18000A0E716FB8EC32F06FC0A0F070C0A1F07C
:101E2800E9C036F0EAC037F0EBC038F0ECC039F062
:101E3800D8EC2BF036C073F037C074F0000E0001F8
:101E4800766F0A0E756F3DEC31F073C0A2F074C066
:101E5800A3F0E9C036F0EAC037F0EBC038F0ECC0C8
:101E680039F0D8EC2BF036C06FF037C070F0000EA8
:101E78000001726F0A0E716FB8EC32F06FC0A4F0F7
:101E880070C0A5F03C0E00017A6FF20E00017B6F66
:101E9800A6C07CF0A7C07DF0A8C07EF0A9C07FF0E6
:101EA8009EC080F09FC081F0A0C082F0A1C083F0E6
:101EB800A2C084F0A3C085F0A4C086F0A5C087F0B6
:101EC800E0EC1FF00E0E00017A6FF10E00017B6F3F
:101ED800E0EC1FF0BC0E00017A6FF90E00017B6F79
:101EE800E0EC1FF04950D8A409D03B0E00017A6FEE
:101EF800FB0E00017B6FE0EC1FF008D0DC0E000148
:101F08007A6FFB0E00017B6FE0EC1FF0780E00018A
:101F18007A6FF00E00017B6FE0EC1FF0C60E000137
:101F28007A6FF90E00017B6FE0EC1FF00001F551AC
:101F3800D8A409D03B0E00017A6FFB0E00017B6F1D
:101F4800E0EC1FF008D05B0E00017A6FFB0E000179
:101F58007B6FE0EC1FF0F90E00017A6FFC0E0001B8
:101F68007B6FE0EC1FF0DCD10001E005D8A41DD0A8
:101F78008A0E00017A6FF30E00017B6FE0EC1FF010
:101F8800560E00017A6FF50E00017B6FE0EC1FF032
:101F9800820E00017A6FF20E00017B6F45C07CF063
:101FA80046C07DF0E0EC1FF0BBD1020E0001E01945
:101FB800D8A41DD08A0E00017A6FF30E00017B6F42
:101FC800E0EC1FF0560E00017A6FF50E00017B6FF2
:101FD800E0EC1FF0490E00017A6FF30E00017B6FF1
:101FE800F3C07CF0F4C07DF0E0EC1FF099D1030E53
:101FF8000001E019D8A40DD0F50E00017A6FF10E9A
:1020080000017B6F47C07CF048C07DF0E0EC1FF01A
:1020180087D1040E0001E019D8A443D0E1C036F0FE
:10202800E2C037F0E3C038F0E4C039F0D8EC2BF068
:1020380036C073F037C074F0000E0001766F0A0ED8
:10204800756F3DEC31F073C0A6F074C0A7F0E1C025
:1020580036F0E2C037F0E3C038F0E4C039F0D8EC2D
:102068002BF036C06FF037C070F0000E0001726FB1
:102078000A0E716FB8EC32F06FC0A8F070C0A9F00A
:10208800460E00017A6FF40E00017B6FA6C07CF04B
:10209800A7C07DF0A8C07EF0A9C07FF0E0EC1FF0DB
:1020A8003FD1050E0001E019D8A425D0880E000103
:1020B8007A6FFA0E00017B6FE0EC1FF04D50D8B438
:1020C80009D0F60E00017A6FFA0E00017B6FE0EC82
:1020D8001FF008D0A60E00017A6FFA0E00017B6F80
:1020E800E0EC1FF0440E00017A6FF70E00017B6FE1
:1020F800E0EC1FF015D1060E0001E019D8A432D08B
:10210800FE0E00017A6FF90E00017B6FE0EC1FF004
:10211800020E4C18D8A409D0100E00017A6FFC0EDC
:1021280000017B6FE0EC1FF014D04C04D8A409D058
:10213800460E00017A6FFB0E00017B6FE0EC1FF08A
:1021480008D0650E00017A6FFB0E00017B6FE0EC92
:102158001FF0BA0E00017A6FF40E00017B6FE0ECFD
:102168001FF0DED0070E0001E019D8A425D0490ED3
:1021780000017A6FFA0E00017B6FE0EC1FF04A5005
:10218800D8B409D0B40E00017A6FFA0E00017B6F43
:10219800E0EC1FF008D05A0E00017A6FFA0E000129
:1021A8007B6FE0EC1FF0840E00017A6FF60E0001E1
:1021B8007B6FE0EC1FF0B4D0080E0001E019D8A442
:1021C8001DD08A0E00017A6FF30E00017B6FE0ECE0
:1021D8001FF0820E00017A6FF40E00017B6FE0ECB5
:1021E8001FF0C50E00017A6FF20E00017B6FF1C07F
:1021F8007CF0F2C07DF0E0EC1FF092D0090E0001F7
:10220800E019D8A439D05C0E00017A6FF90E0001EC
:102218007B6FE0EC1FF04B50D8A409D03B0E0001B7
:102228007A6FFB0E00017B6FE0EC1FF01CD04B04B3
:10223800D8A409D0EE0E00017A6FFB0E00017B6F67
:10224800E0EC1FF010D06F0E00017A6FFB0E00015A
:102258007B6FFF0E4B2400017C6F00017D6BFF0E2E
:102268007D23E0EC1FF0070E00017A6FF30E0001EA
:102278007B6FE0EC1FF054D00A0E0001E019D8A4DF
:1022880025D0D30E00017A6FF70E00017B6FE0ECCA
:102298001FF04950D8A409D03B0E00017A6FFB0EFD
:1022A80000017B6FE0EC1FF008D0DC0E00017A6FB4
:1022B800FB0E00017B6FE0EC1FF05B0E00017A6FF4
:1022C800F60E00017B6FE0EC1FF02AD00B0E000128
:1022D800E019D8A425D0DD0E00017A6FF50E0001B3
:1022E8007B6FE0EC1FF00001F551D8A409D03B0E3C
:1022F80000017A6FFB0E00017B6FE0EC1FF008D045
:102308005B0E00017A6FFB0E00017B6FE0EC1FF0A3
:10231800230E00017A6FF50E00017B6FE0EC1FF0D1
:10232800000E0001CE6F000E0001DF6F12000001E9
:102338009E6F1E0E0001CC6F89860001F505D8A49A
:1023480007D0050E4418D8B481B202D0000E446EEE
:102358000001D151D8A416D0050E00019E19D8A4A9
:1023680011D00001CA510001D8A40CD0010E0001FF
:10237800D16F3FC03EF140C03FF141C040F142C083
:1023880041F108D30001D105D8A426D0D00E01010F
:102398003E2500019A6F070E01013F2100019B6F46
:1023A800000E0101402100019C6F000E0101412136
:1023B80000019D6F3F5000019A5D405000019B59FC
:1023C800415000019C59425000019D59D8B004D099
:1023D8000A0E0001D16FCCD20001D105D8A40ED0CD
:1023E800070E00019E19D8A409D0000E0001D16F74
:1023F800000E0001CA6FC4EC1AF0CCD2500E0001D6
:10240800D119D8A416D0020E00019E19D8A411D053
:102418000001D951D8B40DD0000E0001ED6F000EA7
:10242800EE6F400EEF6F400EF06F000E0001D96F97
:102438009FD20001D151D8B4F5D0D1C011F0126AA1
:10244800000E146E0A0E136EB3EC31F01150121018
:10245800D8A4E8D0030E00019E19D8A4E3D0000147
:10246800CA510001D8B4B7D0DDD00001D951D8B4D1
:1024780095D14A50D8A4A3D1010EA2D10001D951B7
:10248800D8B47FD14D50D8A490D1010E8FD100017E
:10249800D951D8B409D0040E4B18D8A403D0000ED3
:1024A8004B6E66D24B2A64D24D50D8A457D14B04F8
:1024B800D8B454D136D10001D16F5AD20001D951C4
:1024C800D8B42FD1454A462A465004E1650E455CEA
:1024D800D8A04ED2000E466E640E456E49D2000159
:1024E800D951D8B40BD10001F34BF42B0001F451AE
:1024F80005E1510E0001F35DD8A03AD2000E0001AB
:10250800F46F500EF36F34D20001D951D8B40DD006
:10251800474A482A485004E1110E475CD8A028D2FF
:10252800000E486E100E476E23D24A50D8A4C4D06D
:102538003C0EC1D70001D951D8B409D0020E4C18AD
:10254800D8A403D0000E4C6E13D24C2A11D200012D
:10255800D951D8B411D00001F14BF22B0001F2513E
:1025680005E1510E0001F15DD8A002D2000E000174
:10257800F26F500EF16FFCD14D50D8B47AD086D09E
:102588000001D951D8B475D00001BB5105E13C0E0A
:102598000001BA5DD8A0ECD1E80E0001BA5D030EC7
:1025A8000001BB59D8B0E4D10001BA4BBB2BE0D134
:1025B8000001D951D8B452D04950D8A461D0010EE5
:1025C80060D00001D951D8B4FDD00001F551D8A48C
:1025D8004CD0010E4BD00001D1510A0AD8B445D7CE
:1025E8001E0AD8B44BD70A0AD8B468D7360AD8B462
:1025F80076D71A0AD8B488D70E0AD8B49BD77A0ADD
:10260800D8B4A5D7160AD8B4BBD70A0AD8B4D0D03C
:102618003E0AD8B43CD70A0AD8B4CAD7160AD8B4DE
:10262800D0D7A6D10001D151D8B4F6D0D1C011F07D
:10263800126A000E146E0A0E136EB3EC31F01150CC
:102648001210D8A4E9D0060E00019E19D8A4E4D02F
:102658000001CA510001D8B4B7D0DED0780E2BD70C
:102668000001D951D8B405D0B0D7000E0001F56FDC
:102678007FD16E0E20D70001D951D8B404D09CD791
:10268800000E496E75D14D50D8B413D0500E13D7E3
:102698000001D951D8B40DD00001BB5105E13D0E60
:1026A8000001BA5DD8A064D10001BA07D8A0BB0761
:1026B8005FD14A50D8B43CD7460EFDD60001D95157
:1026C800D8B411D00001F107D8A0F2070001F251E7
:1026D80004E10D0E0001F15DD8B04AD1000E0001F1
:1026E800F26F0D0E47D70001D951D8B407D04C501E
:1026F800D8A402D0020E27D74C063AD1320EDBD628
:102708000001D951D8B40DD04706D8A04806485082
:1027180003E1050E475CD8B02BD1000E486E050EBC
:1027280002D7280EC8D60001D951D8B411D000015B
:10273800F307D8A0F4070001F45104E10A0E0001E0
:10274800F35DD8B015D1000E0001F46F0A0EDAD689
:102758004D50D8A403D04B04D8A413D01E0EABD62A
:102768000001D951D8B40DD04506D8A04606465028
:1027780052E10A0E455CD8B0FBD0000E466E0A0E38
:10278800ACD6640E98D60001D951D8B407D04B50B6
:10279800D8A402D0040E84D64B06EAD0140E8BD6E9
:1027A8000001D951D8B404D06DD6000E4D6EE0D0DA
:1027B8000A0E81D60001D951D8B404D05AD6000ED9
:1027C8004A6ED6D05A0E77D60001D1510A0AD8B42B
:1027D800F1D71E0AD8B4E4D70A0AD8B4C1D7360A42
:1027E800D8B4A1D71A0AD8B48BD70E0AD8B47BD7D5
:1027F8007A0AD8B463D7160AD8B44AD70A0AD8B41A
:102808002DD73E0AD8B4BFD70A0AD8B434D7160A87
:10281800D8B426D7ADD0ACD0090E0001D165ACD064
:10282800050E00019E19D8A4A7D00001CA510001C5
:10283800D8A4A2D00001D951D8B46BD0000E0001A1
:10284800D96F500E0001D119D8A492D001014E5170
:102858000001BA1906E101014F510001BB19D8B4B2
:1028680087D04EC111F04FC112F0136A146A000EDE
:1028780086EC29F011C02AF012C02BF013C02CF0FE
:1028880014C02DF0EDC02EF0EEC02FF0EFC030F0E8
:10289800F0C031F05EEC23F02AC042F12BC043F1C6
:1028A8002CC044F12DC045F1BAC011F0BBC012F0E4
:1028B800136A146A000E86EC29F011C02AF012C0BF
:1028C8002BF013C02CF014C02DF042C12EF043C1E0
:1028D8002FF044C130F045C131F05EEC23F02AC03E
:1028E800EDF02BC0EEF02CC0EFF02DC0F0F0BAC028
:1028F80011F0BBC012F0136A146A000E86EC29F0BE
:1029080011C0E1F012C0E2F013C0E3F014C0E4F02B
:102918002FD0010E0001D96F500E0001D119D8A493
:1029280013D0E1C036F0E2C037F0E3C038F0E4C0BD
:1029380039F0D8EC2BF036C0BAF037C0BBF0BAC0CB
:102948004EF1BBC04FF114D05A0E0001D119D8A4D2
:102958000FD0000E0001D16F000E0001D96F000EDC
:10296800446E000E0001DC6F58EC2BF0C4EC1AF03A
:10297800010E0001CA6F0ED0070E00019E19D8A4DF
:1029880009D0000E0001CA6F000E126E0A0E116EF9
:10299800A0EC33F00001CA05D8B404D00001D10579
:1029A800D8A4E6D20001D105D8A427D0000E166E0F
:1029B800000E8FEC34F0040E166E010E8FEC34F01E
:1029C800300E0001816FFB0E0001826F020EFFECDA
:1029D80030F0B80E0001816FFB0E0001826F040E0B
:1029E800FFEC30F0100E166E060E8FEC34F0000E71
:1029F800166E070E8FEC34F0B8D20A0E0001D1190A
:102A0800D8A426D08E0E0001816FF10E0001826FCE
:102A1800020E0001836F5FEC2FF04A50D8B40CD03F
:102A2800B70E0001816FF10E0001826F040E0001E4
:102A3800836F5FEC2FF099D2A30E0001816FF10E26
:102A48000001826F040E0001836F5FEC2FF08DD2BE
:102A5800140E0001D119D8A426D0E40E0001816F0C
:102A6800F10E0001826F020E0001836F5FEC2FF000
:102A78004D50D8B40CD0CF0E0001816FF10E00017B
:102A8800826F040E0001836F5FEC2FF06ED29C0EF4
:102A98000001816FF10E0001826F040E0001836F47
:102AA8005FEC2FF062D2640E0001D119D8A455D082
:102AB800550E0001816FF10E0001826F020E0001B8
:102AC800836F5FEC2FF04B50D8A40CD04C0E000154
:102AD800816FF10E0001826F040E0001836F5FECBD
:102AE8002FF043D24B04D8A40CD0950E0001816F6F
:102AF800F10E0001826F040E0001836F5FEC2FF06E
:102B080034D2020E4B18D8A40CD06F0E0001816F7E
:102B1800F10E0001826F040E0001836F5FEC2FF04D
:102B280024D2030E4B18D8A40CD0770E0001816F65
:102B3800F10E0001826F040E0001836F5FEC2FF02D
:102B480014D27F0E0001816FF10E0001826F040E16
:102B58000001836F5FEC2FF008D21E0E0001D1191F
:102B6800D8A412D0BD0E0001816FF10E0001826F52
:102B7800020E0001836F5FEC2FF045C081F046C064
:102B880082F053EC2CF0F1D1280E0001D119D8A411
:102B980012D0ED0E0001816FF10E0001826F020E5E
:102BA8000001836F5FEC2FF0F3C081F0F4C082F076
:102BB80053EC2CF0DAD1320E0001D119D8A412D07E
:102BC800F10E0001816FF10E0001826F020E00010B
:102BD800836F5FEC2FF047C081F048C082F053EC60
:102BE8002CF0C3D13C0E0001D119D8A436D0DF0E89
:102BF8000001816FF10E0001826F020E0001836FE8
:102C08005FEC2FF04C04D8A40CD05E0E0001816F4D
:102C1800F10E0001826F040E0001836F5FEC2FF04C
:102C2800A4D1020E4C18D8A40CD0C30E0001816F99
:102C3800F10E0001826F040E0001836F5FEC2FF02C
:102C480094D14C0E0001816FF10E0001826F040EC9
:102C58000001836F5FEC2FF088D1460E0001D11977
:102C6800D8A412D0B10E0001816FF10E0001826F5D
:102C7800020E0001836F5FEC2FF0F1C081F0F2C00B
:102C880082F053EC2CF071D1500E0001D119D8A468
:102C9800FAD0E90E0001816FF10E0001826F020E79
:102CA8000001836F5FEC2FF0A0EC34F00001D951E4
:102CB800D8B45FD010EC34F0000E0001BF6F280EBE
:102CC800BE6FBAC073F0BBC074F0000E0001766F1F
:102CD800640E756F3DEC31F0300E00017325000174
:102CE8007A6F000E0001742100017B6FFFEC27F062
:102CF800000E0001726F640E716FBAC06FF0BBC036
:102D080070F0B8EC32F06FC073F070C074F0000E61
:102D18000001766F0A0E756F3DEC31F0300E000140
:102D2800732500017A6F000E0001742100017B6F8A
:102D3800FFEC27F0000E00017B6F2E0E7A6FFFEC80
:102D480027F0BAC06FF0BBC070F0000E0001726FC0
:102D58000A0E716FB8EC32F0300E00016F250001D9
:102D68007A6F000E0001702100017B6FFFEC27F0E5
:102D78007AD0000E0001BF6F280EBE6FE1C036F09A
:102D8800E2C037F0E3C038F0E4C039F0D8EC2BF0FB
:102D980036C073F037C074F0000E0001766F640E11
:102DA800756F3DEC31F0300E0001732500017A6F2C
:102DB800000E0001742100017B6FFFEC27F0000E6C
:102DC8000001726F640E716FE1C036F0E2C037F037
:102DD800E3C038F0E4C039F0D8EC2BF036C06FF01F
:102DE80037C070F0B8EC32F06FC073F070C074F098
:102DF800000E0001766F0A0E756F3DEC31F0300E53
:102E08000001732500017A6F000E00017421000192
:102E18007B6FFFEC27F0000E00017B6F2E0E7A6FA0
:102E2800FFEC27F0E1C036F0E2C037F0E3C038F03D
:102E3800E4C039F0D8EC2BF036C06FF037C070F032
:102E4800000E0001726F0A0E716FB8EC32F0300E8E
:102E580000016F2500017A6F000E0001702100014A
:102E68007B6FFFEC27F0000E0001BF6F580EBE6F9E
:102E7800000E00017B6F410E7A6FFFEC27F0040E05
:102E880022EC32F072D06E0E0001D119D8A426D0EF
:102E9800870E0001816FF10E0001826F020E0001A2
:102EA800836F5FEC2FF04950D8B40CD0AA0E000104
:102EB800816FF10E0001826F040E0001836F5FECD9
:102EC8002FF053D04C0E0001816FF10E0001826F7C
:102ED800040E0001836F5FEC2FF047D0780E0001DD
:102EE800D119D8A427D0C90E0001816FF10E0001B5
:102EF800826F020E0001836F5FEC2FF00001F55125
:102F0800D8B40CD0670E0001816FF10E0001826FFA
:102F1800040E0001836F5FEC2FF027D04C0E0001E8
:102F2800816FF10E0001826F040E0001836F5FEC68
:102F38002FF01BD05A0E0001D119D8A416D0D50EE7
:102F48000001816FF10E0001826F020E0001836F94
:102F58005FEC2FF0DA0E0001816FF10E0001826F35
:102F6800040E0001836F5FEC2FF0020E0001CA6FA0
:102F78003FC04AF140C04BF141C04CF142C04DF155
:102F8800080E0001F86F9EC0FAF0000E0001D26F23
:102F980012000001A46F000E0001B06F000EAF6FA9
:102FA800000E0001A66F000EA56F000E0001A36FB2
:102FB800000EA26F3AC19EF03BC19FF03CC1A0F049
:102FC8003DC1A1F04B50D8A416D0010E0001B16F3D
:102FD800030E0001B16501D00ED00001B151010D01
:102FE800460EF324D96E010EF420DA6E000EDF6E61
:102FF8000001B12BEDD7020E01014619D8A40FD05C
:103008000001F3510001C45D0001F4510001C559EC
:10301800D8B005D0C4C0BCF0C5C0BDF004D0F3C062
:10302800BCF0F4C0BDF0020E4B6004D0BCC032F15D
:10303800BDC033F1000E0001B16F030E0001B16590
:1030480001D031D00001B151010D460EF324D96EE3
:10305800010EF420DA6E020EDE18D8A421D0000189
:10306800AF4BB02B0001B151020D320EF324D96ED3
:10307800010EF420DA6EDE500001A527DD500001B4
:10308800A6230001B151020DB20EF324D96E000E31
:10309800F420DA6EDE500001A227DD500001A323E0
:1030A8000001B12BCAD70001A4510001D8A446D011
:1030B800C0C099F0C1C09AF00001991F9A1F994B9E
:1030C8009A2B45C017F046C018F0000E1A6E0A0E6B
:1030D800196E7CEC34F00001995117240001AB6F94
:1030E80000019A5118200001AC6F0001ACBF16D046
:1030F8000001AC5104E10001AB05D8A00FD0ABC072
:1031080011F0ACC012F0000E146E040E136E3AECFF
:1031180030F011500001C227125006D00001AB5107
:103128000001C2270001AC510001C3230001C3AF55
:1031380005D0000E0001C36F000EC26FA2C017F0C9
:10314800A3C018F0000E1A6E0A0E196E7CEC34F04B
:10315800171E181E174A182A0001C051172400010B
:10316800AD6F0001C15118200001AE6F0001AEAF74
:1031780005D0000E0001AE6F000EAD6F4D50D8A403
:103188001CD04B50D8B40BD045C017F046C018F02F
:10319800000E1A6E0A0E196E7CEC34F00AD0BCC010
:1031A80017F0BDC018F0000E1A6E0A0E196E7CECEE
:1031B80034F017C0C2F018C0C3F00001AF510001CD
:1031C800B011D8B412000001A4510001D8B41DD028
:1031D800ADC099F0AEC09AF00001991F9A1F994BA3
:1031E8009A2B45C017F046C018F0000E1A6E0A0E4A
:1031F800196E7CEC34F00001995117240001C26F5C
:1032080000019A5118200001C36F0001C3BF20D0EC
:1032180047C017F048C018F0AFC019F0B0C01AF096
:103228007CEC34F017C0A7F018C0A8F0A7C017F0BE
:10323800A8C018F0000E1A6E0A0E196E7CEC34F055
:1032480017500001C25D18500001C359D8B027D0EB
:103258000001D82B790E00017A6FFA0E00017B6FFE
:10326800E0EC1FF047C017F048C018F0AFC019F0E5
:10327800B0C01AF07CEC34F017C0A7F018C0A8F062
:10328800A7C017F0A8C018F0000E1A6E0A0E196E23
:103298007CEC34F017C0C2F018C0C3F003D0000EA5
:1032A8000001D86FA5C017F0A6C018F0000E1A6E5E
:1032B8000A0E196E7CEC34F00001C251175C1850EC
:1032C800800A0001996F0001C351800A00019959D1
:1032D800D8B00ED0A5C017F0A6C018F0000E1A6E10
:1032E8000A0E196E7CEC34F017C0C2F018C0C3F097
:1032F800C2C011F0C3C012F0000E146E0A0E136E95
:103308003AEC30F011C0A9F012C0AAF0840E000106
:103318007A6FF50E00017B6FC0C07CF0C1C07DF0F4
:10332800C2C07EF0C3C07FF0ADC080F0AEC081F0F7
:10333800E0EC1FF0000E0001B16FA9C011F0AAC0A7
:1033480012F0AFC013F0B0C014F03AEC30F011C076
:103358009CF012C09DF00001B151010D460EF324FE
:10336800D96E010EF420DA6E020EDE18D8A45BD0F6
:103378000001B151010D9E0EF324D96E000EF42008
:10338800DA6EDF50D8A44FD00001B151020D320ED1
:10339800F324D96E010EF420DA6EDE5000019C5D34
:1033A80000019D51800A00019B6FDE50800A0001D8
:1033B8009B59D8A038D00001B151020D320EF32428
:1033C800D96E010EF420DA6E0001B151020DB20E71
:1033D800F324E16E000EF420E26EDECFE6FFDDCFCF
:1033E800E5FF0001B151010D9E0EF324D96E000EC8
:1033F800F420DA6E010EDF6E0001AF07D8A0B00727
:103408000001B151020DB20EF324D96E000EF42062
:10341800DA6EDE500001A95FDD500001AA5B000EE4
:103428000001B16F02D00001B12B040E0001B1619F
:1034380006D00001AF510001B011D8A47ED7000E0C
:103448000001B16F0001AF510001B011D8B45AD0DA
:103458000001B151010D460EF324D96E010EF4207E
:10346800DA6E020EDE18D8A441D00001B151010D68
:103478009E0EF324D96E000EF420DA6EDF50D8A425
:1034880035D0A9C011F0AAC012F0AFC013F0B0C077
:1034980014F03AEC30F00001B151020DB20EF324F1
:1034A800D96E000EF420DA6E11C0DEFF12C0DDFF07
:1034B8000001B151010D9E0EF324D96E000EF420C7
:1034C800DA6E010EDF6E0001AF07D8A0B007000169
:1034D800B151020DB20EF324D96E000EF420DA6E4B
:1034E800DE500001A95FDD500001AA5B0001B12B8D
:1034F800040E0001B16106D00001AF510001B01106
:10350800D8A4A6D7000E0001B16F030E0001B16563
:1035180001D02DD0260E00017A6FFA0E00017B6FC4
:10352800B1C07CF000017D6B0001B151010D460E68
:10353800F324D96E010EF420DA6EDF500001996F82
:103548000001995100017E6F7F6B0001B151020D9E
:10355800B20EF324D96E000EF420DA6EDECF80F0BE
:10356800DDCF81F0E0EC1FF00001B12BCED7850E46
:1035780000017A6FFA0E00017B6FE0EC1FF0120079
:103588000001D151D8B40CD00001D22B790E000122
:10359800D219D8A41200000E0001D16FCCEC2CF087
:1035A8000A0E0001D219D8A403D0000E0001D26F70
:1035B8004450D8B4F6D089861E0E0001CC6F44045E
:1035C800D8A413D0A60E0001816FFB0E0001826FF4
:1035D800020EFFEC30F0000E0001816FFC0E0001BE
:1035E800826F040EFFEC30F01200020E4418D8A4CB
:1035F80025D0A60E0001816FFB0E0001826F000E20
:10360800FFEC30F0250E0001816FFB0E0001826F88
:10361800020EFFEC30F0A10E0001816FFC0E0001DC
:10362800826F040EFFEC30F03F0E0001816FFC0E3C
:103638000001826F060EFFEC30F01200030E4418F2
:10364800D8A413D0A70E0001816FFC0E0001826F71
:10365800020EFFEC30F0510E0001816FFB0E0001ED
:10366800826F040EFFEC30F01200050E4418D8A447
:1036780053D00001D22BD2050001846F050E000142
:10368800846125D09D0E0001816FFB0E0001826FC1
:10369800000EFFEC30F0B90E0001816FFC0E000146
:1036A800826F020EFFEC30F0000E0001816FFC0EFD
:1036B8000001826F040EFFEC30F08B0E0001816F69
:1036C800FB0E0001826F060EFFEC30F01200AD0E0B
:1036D8000001816FFC0E0001826F000EFFEC30F0DC
:1036E800460E0001816FFC0E0001826F020EFFEC96
:1036F80030F0B50E0001816FFB0E0001826F040EE1
:10370800FFEC30F0B30E0001816FFC0E0001826FF8
:10371800060EFFEC30F01200060E4418D8A4120072
:10372800080E0001816FFC0E0001826F020EFFEC93
:1037380030F00F0E0001816FFB0E0001826F040E46
:10374800FFEC30F0000E0001BF6F640EBE6FDCC0EE
:1037580011F0126A000E146E0A0E136E3AEC30F075
:10376800300E112400017A6F000E122000017B6FC9
:10377800FFEC27F0DCC011F0126A000E146E0A0E7E
:10378800136EB3EC31F0300E112400017A6F000E85
:10379800122000017B6FFFEC27F0040E22EC32F0C0
:1037A8001200500E0001DC19D8A413D0080E000135
:1037B800816FFC0E0001826F020EFFEC30F04D0E9F
:1037C8000001816FFC0E0001826F040EFFEC30F0E7
:1037D80012000001D22BD2050001846F040E0001F3
:1037E800846593D04D50D8B490D0820E0001816F7B
:1037F800FB0E0001826F020EFFEC30F0A0EC34F0FB
:10380800000E0001856F020E0001856501D079D098
:1038180000018551240D100EF3240001BE6F000E27
:10382800F4200001BF6F000E2E6E000E2F6EC80E22
:10383800306E420E316E00018551040DE10EF32405
:10384800D96E000EF420DA6EDECF2AF0DECF2BF030
:10385800DECF2CF0DECF2DF05EEC23F02AC036F060
:103868002BC037F02CC038F02DC039F0D8EC2BF035
:10387800300E362400017A6F000E372000017B6F6E
:10388800FFEC27F0000E2E6E000E2F6E200E306E0D
:10389800410E316E00018551040DE10EF324D96EFD
:1038A800000EF420DA6EDECF2AF0DECF2BF0DECF6A
:1038B8002CF0DECF2DF05EEC23F02AC036F02BC0C2
:1038C80037F02CC038F02DC039F0D8EC2BF036C0CA
:1038D8006FF037C070F0000E0001726F0A0E716F42
:1038E800B8EC32F0300E00016F2500017A6F000E3F
:1038F8000001702100017B6FFFEC27F00001852B90
:1039080082D7040E22EC32F009D14E04D8B404D088
:10391800020E4E18D8A472D0000E166E000E8FEC50
:1039280034F0040E166E010E8FEC34F00001CB510A
:10393800D8A403D04950D8A413D0AF0E0001816F8A
:10394800FB0E0001826F020EFFEC30F0790E0001D1
:10395800816FFB0E0001826F040EFFEC30F012D075
:10396800930E0001816FFC0E0001826F020EFFECC6
:1039780030F0380E0001816FFC0E0001826F040EDA
:10398800FFEC30F0100E166E060E8FEC34F0000EC1
:10399800166E070E8FEC34F04350D8B4BFD0000E2B
:1039A8000001BF6F640EBE6F43C011F0126A000EB3
:1039B800146E0A0E136E3AEC30F0300E112400012A
:1039C8007A6F000E122000017B6FFFEC27F043C0D6
:1039D80011F0126A000E146E0A0E136EB3EC31F079
:1039E800300E112400017A6F000E122000017B6F47
:1039F800FFEC27F0040E22EC32F090D0030E4E18A4
:103A0800D8A48CD089861E0E0001CC6F940E0001BC
:103A1800816FFB0E0001826F020EFFEC30F0000E8A
:103A28000001BF6F100EBE6FA0EC34F0B2C011F0F1
:103A3800B3C012F0000E146E0A0E136E3AEC30F09A
:103A4800300E112400017A6F000E122000017B6FE6
:103A5800FFEC27F0B2C011F0B3C012F0000E146EE4
:103A68000A0E136EB3EC31F0300E112400017A6F98
:103A7800000E122000017B6FFFEC27F0000E000102
:103A88007B6F410E7A6FFFEC27F04D50D8B443D0CE
:103A9800000E00017B6F280E7A6FFFEC27F045C0FF
:103AA80073F046C074F0000E0001766F0A0E756F51
:103AB8003DEC31F0300E0001732500017A6F000EE5
:103AC8000001742100017B6FFFEC27F045C06FF007
:103AD80046C070F0000E0001726F0A0E716FB8ECEC
:103AE80032F0300E00016F2500017A6F000E0001E0
:103AF800702100017B6FFFEC27F0000E00017B6F47
:103B0800410E7A6FFFEC27F0000E00017B6F290E43
:103B18007A6FFFEC27F0040E22EC32F00001CC5152
:103B28000001D8B403D00001CC0712008996120016
:103B380038503910D8B40BD038C0D9FF39C0DAFFA3
:103B480036C0DEFF37C0DDFF02D0364A372A36C01E
:103B5800D9FF37C0DAFFDF5000016D6F00016D51EA
:103B680069EC34F0D8B0F1D7000E00016E6F2D0E5D
:103B780000016D19D8A404D0010E00016E6F05D0A4
:103B88002B0E00016D19D8A402D0364A372A000E30
:103B980000016D6F000E0001706F000E716F000E56
:103BA800726F000E736F000E00016F6F00016EB927
:103BB8000BD036C0D9FF37C0DAFF2E0EDE18D8A4D6
:103BC80003D000016E8946D036C0D9FF37C0DAFF6E
:103BD800DF50D2EC34F0D8A040D000016E83090E3B
:103BE80000016D19D8B431D000016EA902D00001CE
:103BF8006F0700016D2B70C011F071C012F072C018
:103C080013F073C014F00A0E156E000E166E000E37
:103C1800176E000E186EE6EC32F011C070F012C08C
:103C280071F013C072F014C073F036C0D9FF37C0FA
:103C3800DAFFDF503A6ED00E3A263A50000170276C
:103C4800000E71237223732305D000016EB902D0D0
:103C580000016F2B364A372AA9D7000E00016D6F75
:103C680036C0D9FF37C0DAFF650EDE18D8B408D0E1
:103C780036C0D9FF37C0DAFF450EDE18D8A467D0A2
:103C8800364A372A36C0D9FF37C0DAFF2D0EDE187C
:103C9800D8A403D000016E8708D036C0D9FF37C03A
:103CA800DAFF2B0EDE18D8A402D0364A372A36C0DF
:103CB800D9FF37C0DAFF300EDE18D8B4F6D736C0D1
:103CC800D9FF37C0DAFFDF50D2EC34F0D8A03AD0B1
:103CD80036C0D9FF37C0DAFFDF50D00F00016D6F53
:103CE800364A372A36C0D9FF37C0DAFFDF50D2EC60
:103CF80034F0D8A027D036C0D9FF37C0DAFFDF505C
:103D08003A6E00016D510A0DF3503A24D00F0001AC
:103D18006D6F364A372A36C0D9FF37C0DAFFDF5011
:103D2800D2EC34F0D8A00ED036C0D9FF37C0DAFFB5
:103D3800DF503A6E00016D510A0DF3503A24D00F4E
:103D480000016D6F00016EA702D000016D6D0001CA
:103D58006D5100016F2738503910D8B40BD00001CD
:103D68006EA308D038C0D9FF39C0DAFF36C0DEFFED
:103D780037C0DDFF70C011F071C012F072C013F0CF
:103D880073C014F0010E86EC29F011C070F012C057
:103D980071F013C072F014C073F00001705100018B
:103DA80071110001721100017311D8A409D0000E1D
:103DB800366E000E376E000E386E000E396E120029
:103DC80000016FAF71D000016F6D1DD070C02AF077
:103DD80071C02BF072C02CF073C02DF0F90E2E6E4E
:103DE800020E2F6E150E306E500E316E5EEC23F003
:103DF8002AC070F02BC071F02CC072F02DC073F087
:103E0800F60E00016F2700016F51800A760FD8A0C7
:103E18001DD0DCD770C02AF071C02BF072C02CF016
:103E280073C02DF0000E2E6E000E2F6E200E306E19
:103E3800410E316E5EEC23F02AC070F02BC071F099
:103E48002CC072F02DC073F000016F0700016F5194
:103E58000001D8A4DFD770C01FF071C020F072C075
:103E680021F073C022F0000E236E000E246E800E27
:103E7800256E000E266EC8EC2AF0D8B07FD000015F
:103E88006EA109D0000E366E000E376E800E386EA9
:103E9800800E396E1200000E366E000E376E800EE0
:103EA800386E000E396E120000016F51800A7F0FC4
:103EB800D8B01ED063D070C011F071C012F072C0BB
:103EC80013F073C014F0F90E156E020E166E150E6F
:103ED800176E500E186EB6EC21F011C070F012C0BB
:103EE80071F013C072F014C073F0F60E00016F2762
:103EF8000A0E00016F61DFD71CD070C011F071C0CD
:103F080012F072C013F073C014F0000E156E000E9C
:103F1800166E200E176E410E186EB6EC21F011C009
:103F280070F012C071F013C072F014C073F0000189
:103F38006F0700016F510001D8A4DFD7FF0E1F6E75
:103F4800FF0E206E7F0E216E7F0E226E70C023F052
:103F580071C024F072C025F073C026F0C8EC2AF0B6
:103F6800D8B00CD000016EB18DD7000E366E000EA1
:103F7800376E800E386E000E396E120000016EA189
:103F880012D070C011F071C012F072C013F073C07B
:103F980014F029EC34F011C070F012C071F013C0A5
:103FA80072F014C073F070C036F071C037F072C090
:103FB80038F073C039F012007C0E00018F6F000ECC
:103FC8000001906FBFD1250E00019819D8B405D013
:103FD8000001985125EC35F0B5D1000E0001976F1E
:103FE800000E966F000E0001956F05D000019585B3
:103FF80000017A4B7B2B7AC0F6FF7BC0F7FFF86A8B
:104008000800F550300AD8B4F1D77AC0F6FF7BC063
:10401800F7FFF86A0800F550D2EC34F0D8A08FD03A
:10402800000E0001976F000E966F96C017F097C0AC
:1040380018F0000E1A6E0A0E196E7CEC34F017C0D8
:1040480096F018C097F0D00E0001886FFF0E00019F
:10405800896F7AC0F6FF7BC0F7FFF86A0800F55051
:1040680000018A6F8B6B0001885100018A270001CB
:10407800895100018B2300018A5100019627000114
:104088008B510001972300017A4B7B2B7AC0F6FFF6
:104098007BC0F7FFF86A0800F550D2EC34F0D8A0DE
:1040A8004ED0C3D7000196510001915D0001975190
:1040B80000019259D8B009D0000191510001965FD2
:1040C800000192510001975B09D0000E0001976F23
:1040D800000E966F03D0200E25EC35F000019607F0
:1040E800D8A0970700019629F6E100019729D8B4CE
:1040F8000BD0F1D78CC0D9FF8DC0DAFFDF5025EC8B
:1041080035F000018C4B8D2B00019107D8A0920748
:1041180000019129EFE100019229D8B413D1EAD71F
:10412800980E00018C6F000E00018D6F000E0001CB
:10413800926F010E916FB6D70001958D1AD07AC093
:10414800F6FF7BC0F7FF00017A4B7B2BF86A08006B
:10415800F5CF98F000019851000AD8B41200640A0B
:10416800D8B407D00D0AD8B404D01C0AD8B4E4D700
:10417800D7D7000195BD19D08FC0D9FF90C0DAFFFD
:10418800DECF93F0DDCF94F0020E00018F27000EF2
:104198009023000194AF16D0030E0001951300017F
:1041A800936D941FD8B0942B0DD08FC0D9FF90C0B9
:1041B800DAFFDECF93F0DDCF94F0020E00018F27F7
:1041C800000E9023010E0001986F050E000198194A
:1041D800D8B419D000019851020D840EF324F66E5C
:1041E800EF0EF420F76EF86A000EF8220900F55079
:1041F8000001935D0900F55000019459D8A003D03F
:104208000001982BE2D70001965100019711D8B40C
:104218000BD095C088F0030E00018817D8B404D0DD
:1042280000019607D8A09707800E000198BF7F0E5F
:104238000001886F000196510001985D00019751B7
:10424800800A00018859D8B00BD0000198510001AC
:10425800965F000E000198BFFF0E0001975B05D026
:10426800000E0001976F000E966F000195A518D0FB
:1042780095C088F0030E00018817D8B403D02D0E1E
:1042880025EC35F00001965100019711D8B425D0DE
:10429800300E25EC35F000019607D8A09707F2D725
:1042A8000001965100019711D8B40DD0200E25ECCD
:1042B80035F000019607D8A0970700019651000134
:1042C8009711D8A4F3D795C088F0030E000188177A
:1042D800D8B403D02D0E25EC35F098C08EF02CD034
:1042E80000018E51020D840EF324F66EEF0EF420B9
:1042F800F76EF86A000EF8220900F5CF75F00A008B
:10430800F5CF76F093C073F094C074F03DEC31F0C3
:1043180073C06FF074C070F0000E0001726F0A0E67
:10432800716FB8EC32F000016F51300F0001986FD7
:104338000001985125EC35F000018E0700018E2907
:10434800D8A4CED77AC0F6FF7BC0F7FF00017A4B1E
:104358007B2BF86A0800F5CF98F000019851D8B483
:10436800120031D61450800B1D6E14501424236E85
:1043780013BE23802350D8B40DD02328D8A408D046
:10438800000E116E000E126E000E136E000E146EEB
:10439800138E08D0000E116E000E126E000E136EF2
:1043A800000E146E1850800B1D1A185018241E6E1B
:1043B80017BE1E801E50D8B40DD01E28D8A408D011
:1043C800000E156E000E166E000E176E000E186E9B
:1043D800178E08D0000E156E000E166E000E176EA2
:1043E800000E186E1E50D8B403D02350D8A409D09C
:1043F800000E116E000E126E000E136E000E146E7B
:10440800120017501102F3CF28F0F4CF29F02850EA
:104418001F6E206A216A226A2950246E256A266A3C
:10442800276A16501202F3CF28F0F4CF29F028504B
:104438001F26000E20222122222229502426000E87
:1044480025222622272215501302F3CF28F0F4CF75
:1044580029F028501F26000E20222122222229502E
:104468002426000E25222622272221C022F020C041
:1044780021F01FC020F01F6A15501202F3CF28F058
:10448800F4CF29F028501F2629502022000E21227F
:10449800000E222216501102F3CF28F0F4CF29F093
:1044A80028501F2629502022000E2122000E2222E9
:1044B80021C022F020C021F01FC020F01F6A155033
:1044C8001102F3CF28F0F4CF29F028501F262950E5
:1044D8002022000E2122000E222217501202F3CFB2
:1044E80028F0F4CF29F02850242629502522000E40
:1044F8002622000E272216501302F3CF28F0F4CFFD
:1045080029F02850242629502522000E2622000EA4
:10451800272217501302F3CF28F0F4CF29F02850A0
:10452800196E29501A6E1B6A1C6A1BC01CF01AC02F
:104538001BF019C01AF0196A195024261A5025229E
:104548001B5026221C5027221FC019F020C01AF029
:1045580021C01BF022C01CF0190E05D0D8901C32C7
:104568001B321A321932E82EF9D7195024261A505C
:1045780025221B5026221C50272221C022F020C0B1
:1045880021F01FC020F01F6A1E5023C019F01A6ABC
:104598001926000E1A22820E1924286EFF0E1A20E0
:1045A800296E0FD0D890243625362636273622BED7
:1045B8002480D8901F362036213622362806D8A0E7
:1045C800290626AEEFD7000E1E6E22AE16D0FF0EBD
:1045D8001F14196EFF0E20141A6EFF0E21141B6E85
:1045E8007F0E22141C6E19501A101B101C10D8A410
:1045F80002D024A002D0010E1E6E1E50D8B41FD0C7
:10460800010E2426000E25222622272227A017D0B5
:1046180024C019F025C01AF026C01BF027C01CF0D2
:104628001C341C321B321A32193219C024F01AC039
:1046380025F01BC026F01CC027F0284A292A29BECD
:104648000DD0295003E12828D8A008D0000E246EE8
:10465800000E256E800E266E7F0E20D029BE05D056
:1046680029500EE12804D8B00BD0000E246E000E9D
:10467800256E000E266E000E276E000E1D6E0FD0E2
:1046880028C023F0FF0E2416FF0E25167F0E2616CF
:10469800000E271623B0268ED8902330276E1D5083
:1046A800271224C011F025C012F026C013F027C02D
:1046B80014F012002D50800B0001606F2D502D2436
:1046C80000016B6F2CAE02D000016B8100016B51B1
:1046D8000001D8B40ED000016B29D8A408D0000E70
:1046E8002A6E000E2B6E000E2C6E000E2D6E2C8E78
:1046F80006D0000E2A6E000E2B6E000E2C6E000ED9
:104708002D6E3150800B0001601B315031240001A7
:104718006C6F30AE02D000016C8100016C51000159
:10472800D8B40ED000016C29D8A408D0000E2E6E83
:10473800000E2F6E000E306E000E316E308E06D0D9
:10474800000E2E6E000E2F6E000E306E000E316EB3
:104758002E502F1030103110D8A415D0000E2A6E0C
:10476800000E2B6E000E2C6E000E2D6E800E2C127D
:104778007F0E2D122AC02AF02BC02BF02CC02CF053
:104788002DC02DF0120000016B510001D8A411D0EA
:10479800000E2A6E000E2B6E000E2C6E000E2D6E73
:1047A8002AC02AF02BC02BF02CC02CF02DC02DF0E5
:1047B800120000016C51326E336A321E331E324AC7
:1047C800332A00016B51346E356A32503426335027
:1047D80035227F0E34240001656F000E352000015C
:1047E800666F2AC061F02BC062F02CC063F02DC048
:1047F80064F0000E2A6E000E2B6E000E2C6E000E5A
:104808002D6E000E0001676F000E686F000E696F55
:10481800000E6A6F000E00016C6F37D000016C51FA
:104828000001D8B414D00001D890613762376337DB
:104838006437D8902A362B362C362D3600016ABFBD
:104848002A800001D8906737683769376A372E5051
:104858000001615D2F500001625930500001635919
:10486800315000016459D8A00ED000016A8D2E5035
:104878000001615F2F500001625B30500001635BF3
:1048880031500001645B00016C2B190E00016C654E
:10489800C5D70001615100016211000163110001D7
:1048A8006411D8B415D00001678112D0D8902A3687
:1048B8002B362C362D3600016ABF2A800001D8908D
:1048C8006737683769376A3700016507D8A0660710
:1048D8002CAEECD7000E00016C6F00016AAF1BD044
:1048E800FF0E00016715326EFF0E00016815336E6A
:1048F800FF0E00016915346E7F0E00016A15356ED2
:104908003250331034103510D8A402D02AA003D066
:10491800010E00016C6F00016C510001D8B420D069
:10492800010E2A26000E2B222C222D222DA018D073
:104938002AC032F02BC033F02CC034F02DC035F033
:104948003534353234323332323232C02AF033C061
:104958002BF034C02CF035C02DF00001654B662BD0
:10496800000166BF13D00001665104E1000165290A
:10497800D8A00CD0000E0001666F6569000E2A6E83
:10498800000E2B6E000E2C6E000E2D6E000166BF01
:1049980007D00001665114E100016505D8B010D0B8
:1049A800000E0001666F000E656F000E2A6E000E85
:1049B8002B6E000E2C6E000E2D6E000E0001606F27
:1049C80065C06BF000016BA102D02C8E01D02C9E2B
:1049D8000001D8906B312D6E000160512D122AC054
:1049E8002AF02BC02BF02CC02CF02DC02DF012007B
:1049F80008D1200E116EF00E126E80EC33F011C04B
:104A080089F012C08AF00001F851010D200EF3243C
:104A18000001816FF00EF4200001826F11EC33F079
:104A280013D1F10E116EEF0E126E80EC33F011C03F
:104A380089F012C08AF00001F851010DF10EF3243B
:104A48000001816FEF0EF4200001826F11EC33F04A
:104A5800FBD0ED0E116EF00E126E80EC33F011C02B
:104A680089F012C08AF00001F851010DED0EF3240F
:104A78000001816FF00EF4200001826F11EC33F019
:104A8800E3D02D0E116EF10E126E80EC33F011C0D2
:104A980089F012C08AF00001F851010D2D0EF3249F
:104AA8000001816FF10EF4200001826F11EC33F0E8
:104AB800CBD04D0E116EF00E126E80EC33F011C09B
:104AC80089F012C08AF00001F851010D4D0EF3244F
:104AD8000001816FF00EF4200001826F11EC33F0B9
:104AE800B3D08E0E116EEF0E126E80EC33F011C043
:104AF80089F012C08AF00001F851010D8E0EF324DE
:104B08000001816FEF0EF4200001826F11EC33F089
:104B18009BD0C80E116EF00E126E80EC33F011C0EF
:104B280089F012C08AF00001F851010DC80EF32473
:104B38000001816FF00EF4200001826F11EC33F058
:104B480083D0A10E116EF00E126E80EC33F011C0FE
:104B580089F012C08AF00001F851010DA10EF3246A
:104B68000001816FF00EF4200001826F11EC33F028
:104B78006BD0C10E116EEF0E126E80EC33F011C0C7
:104B880089F012C08AF00001F851010DC10EF3241A
:104B98000001816FEF0EF4200001826F11EC33F0F9
:104BA80053D00E0E116EF10E126E80EC33F011C060
:104BB80089F012C08AF00001F851010D0E0EF3249D
:104BC8000001816FF10EF4200001826F11EC33F0C7
:104BD8003BD0780E116EF00E126E80EC33F011C0DF
:104BE80089F012C08AF00001F851010D780EF32403
:104BF8000001816FF00EF4200001826F11EC33F098
:104C080023D00001D1510A0AD8B4F3D61E0AD8B469
:104C180008D70A0AD8B435D7360AD8B44AD71A0AF0
:104C2800D8B45FD70E0AD8B474D77A0AD8B489D75B
:104C3800160AD8B49ED7340AD8B40BD70A0AD8B4FF
:104C4800B0D7160AD8B4C5D70001F82B090E000151
:104C5800F819D8A411D0600E3F2401014A6FF00E54
:104C6800402001014B6FFF0E412001014C6FFF0EE8
:104C7800422001014D6F1200F60E0001856FFF0EF4
:104C88000001866F89C087F08AC088F000018551CD
:104C98000001872700018651000188230001F8518F
:104CA8000001875D000E8859D8B014D0480E3F2403
:104CB80001014A6FF40E402001014B6FFF0E4120A5
:104CC80001014C6FFF0E422001014D6F080E0001DB
:104CD800F86F1200A40E3F2401014A6FED0E402028
:104CE80001014B6FFF0E412001014C6FFF0E422066
:104CF80001014D6F120099C017F09AC018F0000E0C
:104D08001A6E0A0E196E7CEC34F017C09DF018C0AC
:104D18009EF04A50D8B457D040EC34F0F4C111F0AA
:104D2800F5C112F0136A146AA00E156E000E166E05
:104D3800000E176E000E186EE6EC32F011C01DF072
:104D480012C01EF013C01FF014C020F0FF0E216E19
:104D5800030E226E000E236E000E246EBEEC30F0A1
:104D68001DC099F01EC09AF0320E00017A6FF60E3F
:104D780000017B6F9DC07CF09EC07DF0F4C17EF089
:104D8800F5C17FF099C080F09AC081F0E0EC1FF087
:104D98000001995100019D5D00019A5100019E5941
:104DA800D8B004D09DC099F09EC09AF0970E00012B
:104DB8007A6FFA0E00017B6F99C07CF09AC07DF083
:104DC800E0EC1FF00ED099C017F09AC018F0000E52
:104DD8001A6E0A0E196E7CEC34F017C099F018C0E0
:104DE8009AF0050E47184810D8A402D0320E01D008
:104DF8003C0E0001F96F010E0001CD6F0001F95161
:104E080000019B6F9C6B00019B510001995D0001A3
:104E18009C5100019A59D8A021D000019929010E6E
:104E280000019A59D8B01AD099C017F09AC018F052
:104E3800000E1A6E0A0E196E7CEC34F017C073F06F
:104E480018C074F0000E0001766F060E756F3DEC09
:104E580031F073C09FF074C0A0F0A1D0000199296F
:104E6800010E00019A59D8A028D0210E0001995DA1
:104E7800030E00019A59D8B020D099C017F09AC0F3
:104E880018F0000E1A6E0A0E196E7CEC34F017C07A
:104E980073F018C074F0000E0001766F190E756F6C
:104EA8003DEC31F0800E0001732500019F6F020E6A
:104EB800000174210001A06F72D00001DD510001D2
:104EC800D8B41ED000019A5105E1150E0001995D74
:104ED800D8A016D00001F9510001995D000E9A5929
:104EE800D8B00ED00001F9510A0DF3CF11F0F4CF6C
:104EF80012F0000E146E060E136E3AEC30F022D04B
:104F08000001DD510001D8A422D000019A5105E129
:104F18001F0E0001995DD8A01AD00001F9510001B7
:104F2800995D000E9A59D8B012D00001F9510A0DB6
:104F3800F3CF11F0F4CF12F0000E146E060E136EBC
:104F48003AEC30F011C09FF012C0A0F028D0010E4A
:104F58000001992500019B6F000E00019A210001B4
:104F68009C6F00019B5100019C11D8B418D000011E
:104F7800F9510001995D000E9A59D8B010D0050E6C
:104F880047184810D8A406D0000E0001A06F4E0E96
:104F98009F6F02D0040E446E000E0001CD6FCDC08D
:104FA800DDF0740E00017A6FF80E00017B6F9FC070
:104FB8007CF0A0C07DF0CDC07EF000017F6BE0ECFE
:104FC8001FF09FC09BF0A0C09CF00001D8909C33BC
:104FD8009B330001D8909C339B3300019B51BE6EDC
:104FE8009FC09BF0030E00019B1700019B39F00B3B
:104FF8000C09BD6E1200BEC07DF0000E00017E6F70
:10500800040E00017E6501D05BD0000E0001806FA8
:105018007AC017F07BC018F0000E1A6E050E196ED4
:105028007CEC34F000017E511726000E1822890E00
:105038001724F66EEA0E1820F76EF86A000EF822AA
:105048000800F5CF7FF000017FA105D00001805155
:1050580003090001806F00017FA305D00001805182
:105068000C090001806F00017FA505D00001805167
:1050780030090001806F00017FA705D00001805131
:10508800C0090001806F00017D51010D000EF3245D
:10509800D96E020EF420DA6E80C0DFFF00017D2B8E
:1050A80000017D51010D000EF324D96E020EF4208B
:1050B800DA6E80C0DFFF00017D2B00017E2BA0D7B8
:1050C8000001BE51800F00017D6F000E00017E6F50
:1050D800040E00017E6501D060D0000E0001806FD3
:1050E8007AC017F07BC018F0000E1A6E050E196E04
:1050F8007CEC34F000017E511726000E1822890E30
:105108001724F66EEA0E1820F76EF86A000EF822D9
:105118000800F5CF7CF000017C390F0B00017F6F90
:1051280000017FA105D00001805103090001806FB3
:1051380000017FA305D0000180510C090001806F98
:1051480000017FA505D00001805130090001806F62
:1051580000017FA705D000018051C0090001806FC0
:1051680000017D51010D000EF324D96E020EF420CA
:10517800DA6E80C0DFFF00017D2B00017D51010D3B
:10518800000EF324D96E020EF420DA6E80C0DFFF21
:1051980000017D2B00017E2B9BD70C0E0001BE2544
:1051A8000001BE6F000E0001BF210001BF6F120099
:1051B800000E0001866F0001DC05D8A421D0000E86
:1051C800666E8A968988898A070E126ED00E116ECD
:1051D800A0EC33F0000EBD6E8294000E126E640EC9
:1051E800116EA0EC33F0EBEC31F0040AD8A404D033
:1051F800020E0001DC6F73D0010E0001866F6FD0C4
:10520800020E0001DC19D8A415D0020E4E18D8A43D
:1052180011D0F4EC2FF0200E0001C4190001C511C3
:10522800D8B403D0020E0001861B030E0001DC6F08
:105238008A8655D0030E0001DC19D8A42DD0030EA0
:105248004E18D8A429D0010E4C6E850E936E8A8212
:10525800130E126E880E116EA0EC33F082A203D0EA
:10526800040E0001861B000E126E0A0E116EA0ECD1
:1052780033F081A409D08A92000E126E0A0E116EC4
:10528800A0EC33F081A403D0080E0001861B0A0E9F
:105298000001DC6F8A9623D00A0E0001DC19D8A41D
:1052A8001ED0020E4E18D8A41AD0810E936E030E8B
:1052B800126EE80E116EA0EC33F082B204D0040E28
:1052C8000001861B0CD0000186510001D8A407D02C
:1052D800500E0001DC6F000E4C6EC4EC1AF0000199
:1052E80086510001D8B41200810E936E8A928A9476
:1052F8008A96000E4C6E060E446E86C0DCF0010ED7
:105308004E6E1200196E1950D8A414AE1AD011C0DE
:1053180015F012C016F013C017F014C018F0151EBF
:10532800161E171E181E152A000E162217221822DE
:1053380015C01BF016C01CF017C01DF018C01EF0D9
:1053480008D011C01BF012C01CF013C01DF014C00F
:105358001EF01150121013101410D8A409D0000E0A
:10536800116E000E126E000E136E000E146E1200F7
:10537800960E1A6E06D01A2AD8901E321D321C328A
:105388001B32000E1B14156E000E1C14166E000E38
:105398001D14176EFE0E1E14186E155016101710D9
:1053A8001810D8B40DD0E7D71A2A010E1B26000E04
:1053B8001C221D221E22D8901E321D321C321B3286
:1053C800000E1B14156E000E1C14166E000E1D1414
:1053D800176EFF0E1E14186E1550161017101810A1
:1053E800D8B407D0E1D71A06D8901B361C361D361C
:1053F8001E361DBE03D0020E1A60F5D71AB008D0AB
:10540800FF0E1B16FF0E1C167F0E1D16FF0E1E1616
:10541800D8901A321AC015F0166A176A186A15C099
:1054280018F0176A166A156A15501B1216501C12C6
:1054380017501D1218501E121950D8A414AE01D0BE
:105448001E8E1BC011F01CC012F01DC013F01EC030
:1054580014F01200000E256E000E226E000E216E52
:10546800000E266E030E266401D01BD02650010DB7
:10547800460EF324D96E010EF420DA6E020EDE1801
:10548800D8A40DD0252A2650020DB20EF324D96EC9
:10549800000EF420DA6EDE502126DD502222262A64
:1054A800E1D72550D8A41ED047C01DF048C01EF033
:1054B8001D1E1E1E1D4A1E2A45501D24176E4650CD
:1054C8001E20186E000E1A6E0A0E196E7CEC34F04F
:1054D8000001C051175C0001C1511858D8B052D012
:1054E800010E1200252A21C017F022C018F0000E64
:1054F8001A6E0A0E196E7CEC34F0171E181E174A25
:10550800182A0001C0511724236E0001C151182028
:10551800246E24AE04D0000E246E000E236E040EFA
:10552800256402D0040E256E47C017F048C018F055
:10553800000E1A6E0A0E196E7CEC34F017C01FF0BC
:1055480018C020F045C017F046C018F0000E1A6EBB
:105558000A0E196E7CEC34F017C01DF018C01EF04E
:1055680025C017F0186A1FC019F020C01AF07CEC8B
:1055780034F0235017262450182217501D5C185059
:105588001E58ACD7000E1200000E1F14276E000E16
:105598002014286E800E2114296E7F0E22142A6E84
:1055A8002750281029102A10D8A408D0000E1F6EE2
:1055B800000E206E000E216E000E226E000E2314C7
:1055C800276E000E2414286E800E2514296E7F0E77
:1055D80026142A6E2750281029102A10D8A408D07B
:1055E800000E236E000E246E000E256E000E266E31
:1055F80022AE1DD01FC027F020C028F021C029F0FE
:1056080022C02AF0271E281E291E2A1E272A000E1D
:10561800282229222A22000E27241F6E000E282065
:10562800206E000E2920216E800E2A20226E26AEC2
:105638001DD023C027F024C028F025C029F026C09B
:105648002AF0271E281E291E2A1E272A000E282275
:1056580029222A22000E2724236E000E2820246ED9
:10566800000E2920256E800E2A20266E000E1F1A95
:10567800000E201A000E211A800E221A000E231A7C
:10568800000E241A000E251A800E261A23501F5CBD
:10569800245020582550215826502258D8B002D0DE
:1056A800D8901200D8801200F2CF99F0F29E000E26
:1056B800A96E000EAA6E450E116E000E126E000E37
:1056C800146E020E136E5CEC33F0F30E116E000EC6
:1056D800126E000E146E020E136E5CEC33F0470E61
:1056E800116E000E126E000E146E020E136E5CEC3C
:1056F80033F0ED0E116E000E126E000E146E040ED5
:10570800136E5CEC33F04D0E116E000E126E000E2F
:10571800146E010E136E5CEC33F04C0E116E000E1D
:10572800126E000E146E010E136E5CEC33F0F10E67
:10573800116E000E126E000E146E020E136E5CECEB
:1057480033F04A0E116E000E126E000E146E010E2A
:10575800136E5CEC33F04B0E116E000E126E000EE1
:10576800146E010E136E5CEC33F0490E116E000ED0
:10577800126E000E146E010E136E5CEC33F0F50E13
:10578800116E000E126E000E146E010E136E5CEC9C
:1057980033F099C0F2FF130E00017A6FFA0E000180
:1057A8007B6FE0EC1FF012003834393400016E6F63
:1057B80000016E51D8A409D0000E366E000E376E67
:1057C800000E386E000E396E120036C03AF037C03F
:1057D8003BF038C03CF039C03DF0200E05D0D890E1
:1057E8003D323C323B323A32E82EF9D73A5000018A
:1057F8006D6F388EFF0E3616FF0E3716FF0E3816F1
:10580800000E3916960E00016E5F00016EAF18D0BB
:1058180000016E51800A970FD8B009D0000E366E7D
:10582800000E376E000E386E000E396E1200D890DA
:10583800393238323732363200016E3FF8D719D054
:105848001F0E00016E6510D0000E366E000E376E0A
:10585800000E386E000E396E1200D8903636373684
:105868003836393600016E0700016E510001D8A4A0
:10587800F4D700016D510001D8B408D0391E381E84
:10588800371E366C000E37223822392236C036F0E1
:1058980037C037F038C038F039C039F01200A0EC02
:1058A80034F00001D951D8A410EC34F00001825131
:1058B80005E1640E0001815DD8A02CD0000E000126
:1058C800BF6F280EBE6F81C073F082C074F0000EE7
:1058D8000001766F640E756F3DEC31F0300E0001FB
:1058E800732500017A6F000E0001742100017B6F9F
:1058F800FFEC27F081C06FF082C070F0000E00014D
:10590800726F640E716FB8EC32F06FC081F070C0C6
:1059180082F005D0000E0001BF6F2E0EBE6F81C051
:1059280073F082C074F0000E0001766F0A0E756F76
:105938003DEC31F0300E0001732500017A6F000E46
:105948000001742100017B6FFFEC27F081C06FF02C
:1059580082C070F0000E0001726F0A0E716FB8EC11
:1059680032F0300E00016F2500017A6F000E000141
:10597800702100017B6FFFEC27F0000E00017B6FA8
:10598800410E7A6FFFEC27F0040E22EC32F0120081
:10599800F2CF17F0F29E000EA96E000EAA6E450E09
:1059A800116E000E126E000E146E020E136EF6ECDF
:1059B80033F0F30E116E000E126E000E146E020E0E
:1059C800136EF6EC33F0470E116E000E126E000ED9
:1059D800146E020E136EF6EC33F0ED0E116E000E1F
:1059E800126E000E146E040E136EF6EC33F04D0EAC
:1059F800116E000E126E000E146E010E136EF6EC90
:105A080033F04C0E116E000E126E000E146E010E65
:105A1800136EF6EC33F0F10E116E000E126E000EDE
:105A2800146E020E136EF6EC33F04A0E116E000E71
:105A3800126E000E146E010E136EF6EC33F04B0E60
:105A4800116E000E126E000E146E010E136EF6EC3F
:105A580033F0490E116E000E126E000E146E010E18
:105A6800136EF6EC33F0F50E116E000E126E000E8A
:105A7800146E010E136EF6EC33F017C0F2FF12002D
:105A8800000E186E0001D051D8A4FCD71850010D93
:105A9800000EF324D96E010EF420DA6E7E0EDF6E4E
:105AA80034D011C0D9FF12C0DAFFDF50196E114A85
:105AB800122A110E1918D8B410D0120E1918D8B409
:105AC8000CD0130E1918D8B408D07E0E1918D8B4F3
:105AD80004D07D0E1918D8A40ED01950200A196EBA
